{
  "contractName": "MyCoin",
  "abi": [
    {
      "inputs": [],
      "stateMutability": "nonpayable",
      "type": "constructor"
    },
    {
      "inputs": [
        {
          "internalType": "address",
          "name": "spender",
          "type": "address"
        },
        {
          "internalType": "uint256",
          "name": "allowance",
          "type": "uint256"
        },
        {
          "internalType": "uint256",
          "name": "needed",
          "type": "uint256"
        }
      ],
      "name": "ERC20InsufficientAllowance",
      "type": "error"
    },
    {
      "inputs": [
        {
          "internalType": "address",
          "name": "sender",
          "type": "address"
        },
        {
          "internalType": "uint256",
          "name": "balance",
          "type": "uint256"
        },
        {
          "internalType": "uint256",
          "name": "needed",
          "type": "uint256"
        }
      ],
      "name": "ERC20InsufficientBalance",
      "type": "error"
    },
    {
      "inputs": [
        {
          "internalType": "address",
          "name": "approver",
          "type": "address"
        }
      ],
      "name": "ERC20InvalidApprover",
      "type": "error"
    },
    {
      "inputs": [
        {
          "internalType": "address",
          "name": "receiver",
          "type": "address"
        }
      ],
      "name": "ERC20InvalidReceiver",
      "type": "error"
    },
    {
      "inputs": [
        {
          "internalType": "address",
          "name": "sender",
          "type": "address"
        }
      ],
      "name": "ERC20InvalidSender",
      "type": "error"
    },
    {
      "inputs": [
        {
          "internalType": "address",
          "name": "spender",
          "type": "address"
        }
      ],
      "name": "ERC20InvalidSpender",
      "type": "error"
    },
    {
      "anonymous": false,
      "inputs": [
        {
          "indexed": true,
          "internalType": "address",
          "name": "owner",
          "type": "address"
        },
        {
          "indexed": true,
          "internalType": "address",
          "name": "spender",
          "type": "address"
        },
        {
          "indexed": false,
          "internalType": "uint256",
          "name": "value",
          "type": "uint256"
        }
      ],
      "name": "Approval",
      "type": "event"
    },
    {
      "anonymous": false,
      "inputs": [
        {
          "indexed": true,
          "internalType": "address",
          "name": "from",
          "type": "address"
        },
        {
          "indexed": true,
          "internalType": "address",
          "name": "to",
          "type": "address"
        },
        {
          "indexed": false,
          "internalType": "uint256",
          "name": "value",
          "type": "uint256"
        }
      ],
      "name": "Transfer",
      "type": "event"
    },
    {
      "inputs": [
        {
          "internalType": "address",
          "name": "owner",
          "type": "address"
        },
        {
          "internalType": "address",
          "name": "spender",
          "type": "address"
        }
      ],
      "name": "allowance",
      "outputs": [
        {
          "internalType": "uint256",
          "name": "",
          "type": "uint256"
        }
      ],
      "stateMutability": "view",
      "type": "function"
    },
    {
      "inputs": [
        {
          "internalType": "address",
          "name": "spender",
          "type": "address"
        },
        {
          "internalType": "uint256",
          "name": "value",
          "type": "uint256"
        }
      ],
      "name": "approve",
      "outputs": [
        {
          "internalType": "bool",
          "name": "",
          "type": "bool"
        }
      ],
      "stateMutability": "nonpayable",
      "type": "function"
    },
    {
      "inputs": [
        {
          "internalType": "address",
          "name": "account",
          "type": "address"
        }
      ],
      "name": "balanceOf",
      "outputs": [
        {
          "internalType": "uint256",
          "name": "",
          "type": "uint256"
        }
      ],
      "stateMutability": "view",
      "type": "function"
    },
    {
      "inputs": [],
      "name": "inital_supply",
      "outputs": [
        {
          "internalType": "uint256",
          "name": "",
          "type": "uint256"
        }
      ],
      "stateMutability": "view",
      "type": "function"
    },
    {
      "inputs": [],
      "name": "myName",
      "outputs": [
        {
          "internalType": "string",
          "name": "",
          "type": "string"
        }
      ],
      "stateMutability": "view",
      "type": "function"
    },
    {
      "inputs": [],
      "name": "mySymbol",
      "outputs": [
        {
          "internalType": "string",
          "name": "",
          "type": "string"
        }
      ],
      "stateMutability": "view",
      "type": "function"
    },
    {
      "inputs": [],
      "name": "name",
      "outputs": [
        {
          "internalType": "string",
          "name": "",
          "type": "string"
        }
      ],
      "stateMutability": "view",
      "type": "function"
    },
    {
      "inputs": [],
      "name": "symbol",
      "outputs": [
        {
          "internalType": "string",
          "name": "",
          "type": "string"
        }
      ],
      "stateMutability": "view",
      "type": "function"
    },
    {
      "inputs": [],
      "name": "totalSupply",
      "outputs": [
        {
          "internalType": "uint256",
          "name": "",
          "type": "uint256"
        }
      ],
      "stateMutability": "view",
      "type": "function"
    },
    {
      "inputs": [
        {
          "internalType": "address",
          "name": "to",
          "type": "address"
        },
        {
          "internalType": "uint256",
          "name": "value",
          "type": "uint256"
        }
      ],
      "name": "transfer",
      "outputs": [
        {
          "internalType": "bool",
          "name": "",
          "type": "bool"
        }
      ],
      "stateMutability": "nonpayable",
      "type": "function"
    },
    {
      "inputs": [
        {
          "internalType": "address",
          "name": "from",
          "type": "address"
        },
        {
          "internalType": "address",
          "name": "to",
          "type": "address"
        },
        {
          "internalType": "uint256",
          "name": "value",
          "type": "uint256"
        }
      ],
      "name": "transferFrom",
      "outputs": [
        {
          "internalType": "bool",
          "name": "",
          "type": "bool"
        }
      ],
      "stateMutability": "nonpayable",
      "type": "function"
    },
    {
      "inputs": [],
      "name": "decimals",
      "outputs": [
        {
          "internalType": "uint8",
          "name": "",
          "type": "uint8"
        }
      ],
      "stateMutability": "view",
      "type": "function"
    }
  ],
  "bytecode": "0x608060405234801562000010575f80fd5b506040518060400160405280600c81526020017f48637a4552433230546f6b6500000000000000000000000000000000000000008152506040518060400160405280600381526020017f48435a000000000000000000000000000000000000000000000000000000000081525081600390816200008e9190620005e5565b508060049081620000a09190620005e5565b505050620000cd33670de0b6b3a7640000620f4240620000c19190620006f6565b620000d360201b60201c565b6200083f565b5f73ffffffffffffffffffffffffffffffffffffffff168273ffffffffffffffffffffffffffffffffffffffff160362000146575f6040517fec442f050000000000000000000000000000000000000000000000000000000081526004016200013d919062000783565b60405180910390fd5b620001595f83836200015d60201b60201c565b5050565b5f73ffffffffffffffffffffffffffffffffffffffff168373ffffffffffffffffffffffffffffffffffffffff1603620001b1578060025f828254620001a491906200079e565b9250508190555062000282565b5f805f8573ffffffffffffffffffffffffffffffffffffffff1673ffffffffffffffffffffffffffffffffffffffff1681526020019081526020015f20549050818110156200023d578381836040517fe450d38c0000000000000000000000000000000000000000000000000000000081526004016200023493929190620007e9565b60405180910390fd5b8181035f808673ffffffffffffffffffffffffffffffffffffffff1673ffffffffffffffffffffffffffffffffffffffff1681526020019081526020015f2081905550505b5f73ffffffffffffffffffffffffffffffffffffffff168273ffffffffffffffffffffffffffffffffffffffff1603620002cb578060025f828254039250508190555062000315565b805f808473ffffffffffffffffffffffffffffffffffffffff1673ffffffffffffffffffffffffffffffffffffffff1681526020019081526020015f205f82825401925050819055505b8173ffffffffffffffffffffffffffffffffffffffff168373ffffffffffffffffffffffffffffffffffffffff167fddf252ad1be2c89b69c2b068fc378daa952ba7f163c4a11628f55a4df523b3ef8360405162000374919062000824565b60405180910390a3505050565b5f81519050919050565b7f4e487b71000000000000000000000000000000000000000000000000000000005f52604160045260245ffd5b7f4e487b71000000000000000000000000000000000000000000000000000000005f52602260045260245ffd5b5f6002820490506001821680620003fd57607f821691505b602082108103620004135762000412620003b8565b5b50919050565b5f819050815f5260205f209050919050565b5f6020601f8301049050919050565b5f82821b905092915050565b5f60088302620004777fffffffffffffffffffffffffffffffffffffffffffffffffffffffffffffffff826200043a565b6200048386836200043a565b95508019841693508086168417925050509392505050565b5f819050919050565b5f819050919050565b5f620004cd620004c7620004c1846200049b565b620004a4565b6200049b565b9050919050565b5f819050919050565b620004e883620004ad565b62000500620004f782620004d4565b84845462000446565b825550505050565b5f90565b6200051662000508565b62000523818484620004dd565b505050565b5b818110156200054a576200053e5f826200050c565b60018101905062000529565b5050565b601f8211156200059957620005638162000419565b6200056e846200042b565b810160208510156200057e578190505b620005966200058d856200042b565b83018262000528565b50505b505050565b5f82821c905092915050565b5f620005bb5f19846008026200059e565b1980831691505092915050565b5f620005d58383620005aa565b9150826002028217905092915050565b620005f08262000381565b67ffffffffffffffff8111156200060c576200060b6200038b565b5b620006188254620003e5565b620006258282856200054e565b5f60209050601f8311600181146200065b575f841562000646578287015190505b620006528582620005c8565b865550620006c1565b601f1984166200066b8662000419565b5f5b8281101562000694578489015182556001820191506020850194506020810190506200066d565b86831015620006b45784890151620006b0601f891682620005aa565b8355505b6001600288020188555050505b505050505050565b7f4e487b71000000000000000000000000000000000000000000000000000000005f52601160045260245ffd5b5f62000702826200049b565b91506200070f836200049b565b92508282026200071f816200049b565b91508282048414831517620007395762000738620006c9565b5b5092915050565b5f73ffffffffffffffffffffffffffffffffffffffff82169050919050565b5f6200076b8262000740565b9050919050565b6200077d816200075f565b82525050565b5f602082019050620007985f83018462000772565b92915050565b5f620007aa826200049b565b9150620007b7836200049b565b9250828201905080821115620007d257620007d1620006c9565b5b92915050565b620007e3816200049b565b82525050565b5f606082019050620007fe5f83018662000772565b6200080d6020830185620007d8565b6200081c6040830184620007d8565b949350505050565b5f602082019050620008395f830184620007d8565b92915050565b610eec806200084d5f395ff3fe608060405234801561000f575f80fd5b50600436106100b2575f3560e01c806370a082311161006f57806370a082311461018e57806395d89b41146101be578063a9059cbb146101dc578063d57ed54c1461020c578063dd62ed3e1461022a578063fae2dd4b1461025a576100b2565b806306fdde03146100b6578063095ea7b3146100d457806318160ddd1461010457806323b872dd14610122578063313ce567146101525780635f95597614610170575b5f80fd5b6100be610278565b6040516100cb9190610b65565b60405180910390f35b6100ee60048036038101906100e99190610c16565b610308565b6040516100fb9190610c6e565b60405180910390f35b61010c61032a565b6040516101199190610c96565b60405180910390f35b61013c60048036038101906101379190610caf565b610333565b6040516101499190610c6e565b60405180910390f35b61015a610361565b6040516101679190610d1a565b60405180910390f35b610178610365565b6040516101859190610c96565b60405180910390f35b6101a860048036038101906101a39190610d33565b61036c565b6040516101b59190610c96565b60405180910390f35b6101c66103b1565b6040516101d39190610b65565b60405180910390f35b6101f660048036038101906101f19190610c16565b610441565b6040516102039190610c6e565b60405180910390f35b610214610463565b6040516102219190610b65565b60405180910390f35b610244600480360381019061023f9190610d5e565b61049c565b6040516102519190610c96565b60405180910390f35b61026261051e565b60405161026f9190610b65565b60405180910390f35b60606003805461028790610dc9565b80601f01602080910402602001604051908101604052809291908181526020018280546102b390610dc9565b80156102fe5780601f106102d5576101008083540402835291602001916102fe565b820191905f5260205f20905b8154815290600101906020018083116102e157829003601f168201915b5050505050905090565b5f80610312610557565b905061031f81858561055e565b600191505092915050565b5f600254905090565b5f8061033d610557565b905061034a858285610570565b610355858585610603565b60019150509392505050565b5f90565b620f424081565b5f805f8373ffffffffffffffffffffffffffffffffffffffff1673ffffffffffffffffffffffffffffffffffffffff1681526020019081526020015f20549050919050565b6060600480546103c090610dc9565b80601f01602080910402602001604051908101604052809291908181526020018280546103ec90610dc9565b80156104375780601f1061040e57610100808354040283529160200191610437565b820191905f5260205f20905b81548152906001019060200180831161041a57829003601f168201915b5050505050905090565b5f8061044b610557565b9050610458818585610603565b600191505092915050565b6040518060400160405280600381526020017f48435a000000000000000000000000000000000000000000000000000000000081525081565b5f60015f8473ffffffffffffffffffffffffffffffffffffffff1673ffffffffffffffffffffffffffffffffffffffff1681526020019081526020015f205f8373ffffffffffffffffffffffffffffffffffffffff1673ffffffffffffffffffffffffffffffffffffffff1681526020019081526020015f2054905092915050565b6040518060400160405280600c81526020017f48637a4552433230546f6b65000000000000000000000000000000000000000081525081565b5f33905090565b61056b83838360016106f3565b505050565b5f61057b848461049c565b90507fffffffffffffffffffffffffffffffffffffffffffffffffffffffffffffffff8110156105fd57818110156105ee578281836040517ffb8f41b20000000000000000000000000000000000000000000000000000000081526004016105e593929190610e08565b60405180910390fd5b6105fc84848484035f6106f3565b5b50505050565b5f73ffffffffffffffffffffffffffffffffffffffff168373ffffffffffffffffffffffffffffffffffffffff1603610673575f6040517f96c6fd1e00000000000000000000000000000000000000000000000000000000815260040161066a9190610e3d565b60405180910390fd5b5f73ffffffffffffffffffffffffffffffffffffffff168273ffffffffffffffffffffffffffffffffffffffff16036106e3575f6040517fec442f050000000000000000000000000000000000000000000000000000000081526004016106da9190610e3d565b60405180910390fd5b6106ee8383836108c2565b505050565b5f73ffffffffffffffffffffffffffffffffffffffff168473ffffffffffffffffffffffffffffffffffffffff1603610763575f6040517fe602df0500000000000000000000000000000000000000000000000000000000815260040161075a9190610e3d565b60405180910390fd5b5f73ffffffffffffffffffffffffffffffffffffffff168373ffffffffffffffffffffffffffffffffffffffff16036107d3575f6040517f94280d620000000000000000000000000000000000000000000000000000000081526004016107ca9190610e3d565b60405180910390fd5b8160015f8673ffffffffffffffffffffffffffffffffffffffff1673ffffffffffffffffffffffffffffffffffffffff1681526020019081526020015f205f8573ffffffffffffffffffffffffffffffffffffffff1673ffffffffffffffffffffffffffffffffffffffff1681526020019081526020015f208190555080156108bc578273ffffffffffffffffffffffffffffffffffffffff168473ffffffffffffffffffffffffffffffffffffffff167f8c5be1e5ebec7d5bd14f71427d1e84f3dd0314c0f7b2291e5b200ac8c7c3b925846040516108b39190610c96565b60405180910390a35b50505050565b5f73ffffffffffffffffffffffffffffffffffffffff168373ffffffffffffffffffffffffffffffffffffffff1603610912578060025f8282546109069190610e83565b925050819055506109e0565b5f805f8573ffffffffffffffffffffffffffffffffffffffff1673ffffffffffffffffffffffffffffffffffffffff1681526020019081526020015f205490508181101561099b578381836040517fe450d38c00000000000000000000000000000000000000000000000000000000815260040161099293929190610e08565b60405180910390fd5b8181035f808673ffffffffffffffffffffffffffffffffffffffff1673ffffffffffffffffffffffffffffffffffffffff1681526020019081526020015f2081905550505b5f73ffffffffffffffffffffffffffffffffffffffff168273ffffffffffffffffffffffffffffffffffffffff1603610a27578060025f8282540392505081905550610a71565b805f808473ffffffffffffffffffffffffffffffffffffffff1673ffffffffffffffffffffffffffffffffffffffff1681526020019081526020015f205f82825401925050819055505b8173ffffffffffffffffffffffffffffffffffffffff168373ffffffffffffffffffffffffffffffffffffffff167fddf252ad1be2c89b69c2b068fc378daa952ba7f163c4a11628f55a4df523b3ef83604051610ace9190610c96565b60405180910390a3505050565b5f81519050919050565b5f82825260208201905092915050565b5f5b83811015610b12578082015181840152602081019050610af7565b5f8484015250505050565b5f601f19601f8301169050919050565b5f610b3782610adb565b610b418185610ae5565b9350610b51818560208601610af5565b610b5a81610b1d565b840191505092915050565b5f6020820190508181035f830152610b7d8184610b2d565b905092915050565b5f80fd5b5f73ffffffffffffffffffffffffffffffffffffffff82169050919050565b5f610bb282610b89565b9050919050565b610bc281610ba8565b8114610bcc575f80fd5b50565b5f81359050610bdd81610bb9565b92915050565b5f819050919050565b610bf581610be3565b8114610bff575f80fd5b50565b5f81359050610c1081610bec565b92915050565b5f8060408385031215610c2c57610c2b610b85565b5b5f610c3985828601610bcf565b9250506020610c4a85828601610c02565b9150509250929050565b5f8115159050919050565b610c6881610c54565b82525050565b5f602082019050610c815f830184610c5f565b92915050565b610c9081610be3565b82525050565b5f602082019050610ca95f830184610c87565b92915050565b5f805f60608486031215610cc657610cc5610b85565b5b5f610cd386828701610bcf565b9350506020610ce486828701610bcf565b9250506040610cf586828701610c02565b9150509250925092565b5f60ff82169050919050565b610d1481610cff565b82525050565b5f602082019050610d2d5f830184610d0b565b92915050565b5f60208284031215610d4857610d47610b85565b5b5f610d5584828501610bcf565b91505092915050565b5f8060408385031215610d7457610d73610b85565b5b5f610d8185828601610bcf565b9250506020610d9285828601610bcf565b9150509250929050565b7f4e487b71000000000000000000000000000000000000000000000000000000005f52602260045260245ffd5b5f6002820490506001821680610de057607f821691505b602082108103610df357610df2610d9c565b5b50919050565b610e0281610ba8565b82525050565b5f606082019050610e1b5f830186610df9565b610e286020830185610c87565b610e356040830184610c87565b949350505050565b5f602082019050610e505f830184610df9565b92915050565b7f4e487b71000000000000000000000000000000000000000000000000000000005f52601160045260245ffd5b5f610e8d82610be3565b9150610e9883610be3565b9250828201905080821115610eb057610eaf610e56565b5b9291505056fea2646970667358221220f74e6e52b0634eb1b510869cb0608a4673ce63387a7232807ad5b939042b05b064736f6c63430008150033",
  "immutableReferences": {},
  "source": "// SPDX-License-Identifier: MIT\r\npragma solidity ^0.8.21;\r\nimport \"@openzeppelin/contracts/token/ERC20/ERC20.sol\";\r\n\r\ncontract MyCoin is ERC20 {\r\n  string public constant myName=\"HczERC20Toke\";\r\n  string public constant mySymbol = \"HCZ\";\r\n   //\r\n   uint256 public constant inital_supply = 1000000;\r\n\r\n  constructor() ERC20(myName,mySymbol) {\r\n    _mint(msg.sender,inital_supply * 10 ** 18);\r\n  }\r\n\r\n  function decimals() public view virtual override returns (uint8){\r\n    return 0 ;\r\n  }\r\n\r\n}\r\n\r\n",
  "sourcePath": "E:\\mycm\\guge-demo\\hcz-truffle-course-version\\contracts\\MyCoin.sol",
  "compiler": {
    "name": "solc",
    "version": "0.8.21+commit.d9974bed.Emscripten.clang"
  },
  "schemaVersion": "3.4.16",
  "updatedAt": "2025-06-04T11:17:12.000Z",
  "devdoc": {
    "errors": {
      "ERC20InsufficientAllowance(address,uint256,uint256)": [
        {
          "details": "Indicates a failure with the `spender`s `allowance`. Used in transfers.",
          "params": {
            "allowance": "Amount of tokens a `spender` is allowed to operate with.",
            "needed": "Minimum amount required to perform a transfer.",
            "spender": "Address that may be allowed to operate on tokens without being their owner."
          }
        }
      ],
      "ERC20InsufficientBalance(address,uint256,uint256)": [
        {
          "details": "Indicates an error related to the current `balance` of a `sender`. Used in transfers.",
          "params": {
            "balance": "Current balance for the interacting account.",
            "needed": "Minimum amount required to perform a transfer.",
            "sender": "Address whose tokens are being transferred."
          }
        }
      ],
      "ERC20InvalidApprover(address)": [
        {
          "details": "Indicates a failure with the `approver` of a token to be approved. Used in approvals.",
          "params": {
            "approver": "Address initiating an approval operation."
          }
        }
      ],
      "ERC20InvalidReceiver(address)": [
        {
          "details": "Indicates a failure with the token `receiver`. Used in transfers.",
          "params": {
            "receiver": "Address to which tokens are being transferred."
          }
        }
      ],
      "ERC20InvalidSender(address)": [
        {
          "details": "Indicates a failure with the token `sender`. Used in transfers.",
          "params": {
            "sender": "Address whose tokens are being transferred."
          }
        }
      ],
      "ERC20InvalidSpender(address)": [
        {
          "details": "Indicates a failure with the `spender` to be approved. Used in approvals.",
          "params": {
            "spender": "Address that may be allowed to operate on tokens without being their owner."
          }
        }
      ]
    },
    "events": {
      "Approval(address,address,uint256)": {
        "details": "Emitted when the allowance of a `spender` for an `owner` is set by a call to {approve}. `value` is the new allowance."
      },
      "Transfer(address,address,uint256)": {
        "details": "Emitted when `value` tokens are moved from one account (`from`) to another (`to`). Note that `value` may be zero."
      }
    },
    "kind": "dev",
    "methods": {
      "allowance(address,address)": {
        "details": "See {IERC20-allowance}."
      },
      "approve(address,uint256)": {
        "details": "See {IERC20-approve}. NOTE: If `value` is the maximum `uint256`, the allowance is not updated on `transferFrom`. This is semantically equivalent to an infinite approval. Requirements: - `spender` cannot be the zero address."
      },
      "balanceOf(address)": {
        "details": "See {IERC20-balanceOf}."
      },
      "decimals()": {
        "details": "Returns the number of decimals used to get its user representation. For example, if `decimals` equals `2`, a balance of `505` tokens should be displayed to a user as `5.05` (`505 / 10 ** 2`). Tokens usually opt for a value of 18, imitating the relationship between Ether and Wei. This is the default value returned by this function, unless it's overridden. NOTE: This information is only used for _display_ purposes: it in no way affects any of the arithmetic of the contract, including {IERC20-balanceOf} and {IERC20-transfer}."
      },
      "name()": {
        "details": "Returns the name of the token."
      },
      "symbol()": {
        "details": "Returns the symbol of the token, usually a shorter version of the name."
      },
      "totalSupply()": {
        "details": "See {IERC20-totalSupply}."
      },
      "transfer(address,uint256)": {
        "details": "See {IERC20-transfer}. Requirements: - `to` cannot be the zero address. - the caller must have a balance of at least `value`."
      },
      "transferFrom(address,address,uint256)": {
        "details": "See {IERC20-transferFrom}. Skips emitting an {Approval} event indicating an allowance update. This is not required by the ERC. See {xref-ERC20-_approve-address-address-uint256-bool-}[_approve]. NOTE: Does not update the allowance if the current allowance is the maximum `uint256`. Requirements: - `from` and `to` cannot be the zero address. - `from` must have a balance of at least `value`. - the caller must have allowance for ``from``'s tokens of at least `value`."
      }
    },
    "version": 1
  },
  "userdoc": {
    "kind": "user",
    "methods": {},
    "version": 1
  }
}